:100000000C9424010C94F5010C9485020C941503B6
:100010000C9441010C9435030C9441010C94410162
:100020000C9441010C9441010C9441010C94410148
:100030000C9441010C9441010C949D040C944101D9
:100040000C9441010C9441010C9443010C94410126
:100050000C9441010C94A4030C9441010C944101B3
:100060000C9441010C944101000000000000005F6D
:1000700000000007000700147F147F14242A7F2A41
:10008000122313086462364955225000050300000C
:10009000001C2241000041221C0014083E081408E4
:1000A000083E0808005030000008080808080060F2
:1000B00060000020100804023E5149453E00427F86
:1000C000400042615149462141454B311814127F8D
:1000D0001027454545393C4A494930017109050316
:1000E0003649494936064949291E0036360000007E
:1000F0005636000008142241001414141414004150
:100100002214080201510906324979413E7E11113B
:10011000117E7F494949363E414141227F4141227A
:100120001C7F494949417F090909013E4149497AF2
:100130007F0808087F00417F41002040413F017F48
:10014000081422417F404040407F020C027F7F0420
:1001500008107F3E4141413E7F090909063E415159
:10016000215E7F09192946464949493101017F012C
:10017000013F4040403F1F2040201F3F4038403F4C
:100180006314081463070870080761514945430068
:100190007F41410002040810200041417F00040219
:1001A0000102044040404040000102040020545439
:1001B00054787F48444438384444442038444448C0
:1001C0007F3854545418087E0901020C5252523E92
:1001D0007F0804047800447D40002040443D007FB7
:1001E0001028440000417F40007C041804787C08FB
:1001F00004047838444444387C1414140808141453
:10020000187C7C080404084854545420043F44409B
:10021000203C4040207C1C2040201C3C4030403C86
:1002200044281028440C5050503C4464544C440022
:100230000836410000007F00000041360800100829
:10024000081008000000000011241FBECFEFD8E006
:10025000DEBFCDBF11E0A0E0B1E0EEECFEE102C0F8
:1002600005900D92AC38B107D9F723E0ACE8B1E0C6
:1002700001C01D92AC3AB207E1F70E94B6080C9497
:10028000650F0C9400001F920F9200905F000F9278
:1002900011242F933F934F935F936F937F938F938B
:1002A0009F93AF93BF93EF93FF93CF93DF931F92EF
:1002B000CDB7DEB786EC90E0FC0180818093AB0384
:1002C0008091AB038B3319F481E380930901809112
:1002D000A9019091AA01A091AB01B091AC0189381C
:1002E0009341A105B10508F067C0809109018133F0
:1002F00009F062C080918E01882F90E02091AB03BD
:1003000080509F4FFC01208380918E018F5F8093EE
:100310008E0180918E01893029F08091AB038A3360
:1003200009F046C0809108018A33B9F588E78093C7
:100330000401809100018B3381F510921301198221
:100340000EC08981882F90E080509F4FFC018081F2
:10035000882F90E00E947F0689818F5F8983898141
:10036000893078F38091010180930A018091020124
:1003700080930B018091030180930C018091050112
:1003800080930E018091060180930F0180910701F7
:10039000809310010E949A0605C081E080931301AA
:1003A0000E949A0680E38093090110928E0107C093
:1003B00081E08093130103C081E08093130100006A
:1003C0000F90DF91CF91FF91EF91BF91AF919F91EE
:1003D0008F917F916F915F914F913F912F910F90EE
:1003E00000925F000F901F9018951F920F9200903F
:1003F0005F000F9211242F933F936F937F938F93FE
:100400009F93AF93BF93EF93FF93CF93DF9300D06E
:10041000CDB7DEB780918F01843049F4809114010B
:100420008E3128F4809114018F5F809314018091A4
:100430008F01863009F047C08091990190919A010F
:10044000A0919B01B0919C019A83898389819A81B3
:1004500084369105C4F58AE890E02AE830E0F90195
:100460002081318128533F4FFC01318320838AE86A
:1004700090E0FC0180819181803D974038F48AE8CA
:1004800090E020ED37E0FC01318320838AE890E0A2
:10049000FC0180819181805D97409C01ADECBCECBA
:1004A0000E94160F929582958F7089279F708927D9
:1004B000CC01A0E0B0E08093990190939A01A093C1
:1004C0009B01B0939C0180918F01883049F4809109
:1004D0001501883028F4809115018F5F80931501F4
:1004E00000000F900F90DF91CF91FF91EF91BF919E
:1004F000AF919F918F917F916F913F912F910F902D
:1005000000925F000F901F9018951F920F9200901D
:100510005F000F9211242F933F936F937F938F93DC
:100520009F93AF93BF93EF93FF93CF93DF9300D04D
:10053000CDB7DEB780918F01843049F480911401EA
:10054000863028F0809114018150809314018091AD
:100550008F01863009F047C08091990190919A01EE
:10056000A0919B01B0919C019A83898389819A8192
:1005700018161906C4F58AE890E02AE830E0F90177
:1005800020813181285C3109FC01318320838AE894
:1005900090E0FC0180819181803D974038F48AE8A9
:1005A00090E020ED37E0FC01318320838AE890E081
:1005B000FC0180819181805D97409C01ADECBCEC99
:1005C0000E94160F929582958F7089279F708927B8
:1005D000CC01A0E0B0E08093990190939A01A093A0
:1005E0009B01B0939C0180918F01883049F48091E8
:1005F0001501823028F080911501815080931501FA
:1006000000000F900F90DF91CF91FF91EF91BF917C
:10061000AF919F918F917F916F913F912F910F900B
:1006200000925F000F901F9018951F920F920090FC
:100630005F000F9211248F93CF93DF93CDB7DEB776
:1006400080918F018F5F80938F0180918F018A301D
:1006500011F410928F010000DF91CF918F910F90D4
:1006600000925F000F901F9018951F920F920090BC
:100670005F000F921124EF92FF920F931F932F931D
:100680003F934F935F936F937F938F939F93AF931A
:10069000BF93EF93FF93CF93DF93CDB7DEB7209156
:1006A000A1013091A2014091A3015091A401809138
:1006B000AD019091AE01A091AF01B091B00179016F
:1006C0008A01E81AF90A0A0B1B0BD801C7019C0121
:1006D000AD01220F331F441F551F80E69AEEA0E0A4
:1006E000B0E0BC01CD010E94F40EDA01C901909383
:1006F0009201809391018091A1019091A201A0911A
:10070000A301B091A4018093AD019093AE01A09399
:10071000AF01B093B0010000DF91CF91FF91EF9155
:10072000BF91AF919F918F917F916F915F914F9109
:100730003F912F911F910F91FF90EF900F9000929A
:100740005F000F901F9018951F920F9200905F000E
:100750000F9211242F933F934F935F936F937F9347
:100760008F939F93AF93BF93EF93FF93CF93DF93B9
:10077000CDB7DEB780918D018823F1F58CE790E04D
:1007800020E4FC01208388E790E0FC0180819181D6
:1007900022E3289FA001299F500D11242FEF33E061
:1007A000CA01B9010E94CC0ECB01CC01A0E0B0E09F
:1007B000BC01CD010E949C0DDC01CB012AE037ED8C
:1007C00043E25DE3BC01CD010E94F40CDC01CB01EE
:1007D00020E030E040E251E4BC01CD010E94F40C85
:1007E000DC01CB01BC01CD010E946D0DDC01CB0110
:1007F000909396018093950180918D018130E1F471
:100800008CE790E021E4FC01208388E790E0FC0184
:100810008081918122E3289FA001299F500D1124FE
:100820002FEF33E0CA01B9010E94CC0ECB010A962A
:10083000909394018093930180918D01823009F00F
:100840004BC08CE790E022E4FC01208388E790E035
:10085000FC012081318184EF91E0289FA001299F34
:10086000500D389F500D11242FEF33E0CA01B9010C
:100870000E94CC0ECB0184549D4F9093980180939D
:10088000970180919701909198018F3D924060F07F
:1008900080919701909198018A3E924028F48BE2D2
:1008A00090E02DE3FC0120838091970190919801C5
:1008B0008F3D924028F48BE290E02FE1FC012083F1
:1008C00080919701909198018A3E924028F08BE2A6
:1008D00090E02DE5FC01208380919301909194019B
:1008E000839730F080919301909194018A9730F032
:1008F0008091950190919601CD9750F48BE290E014
:100900002BE230E0F901308120E82327FC0120832D
:100910000000DF91CF91FF91EF91BF91AF919F9137
:100920008F917F916F915F914F913F912F910F9098
:1009300000925F000F901F9018951F920F920090E9
:100940005F000F921124EF92FF920F931F932F934A
:100950003F934F935F936F937F938F939F93AF9347
:10096000BF93EF93FF93CF93DF93CDB7DEB7269777
:10097000DEBFCDBF8091A1019091A201A091A30102
:10098000B091A4010196A11DB11D8093A101909386
:10099000A201A093A301B093A40180910901813326
:1009A00081F58091A9019091AA01A091AB01B0912C
:1009B000AC010196A11DB11D8093A9019093AA01DC
:1009C000A093AB01B093AC018091A9019091AA01D1
:1009D000A091AB01B091AC0188389341A105B1055C
:1009E00081F41092A9011092AA011092AB01109209
:1009F000AC0180E38093090181E0809313010E94A0
:100A00009A068091A1019091A201A091A301B091B9
:100A1000A4012BE430E040E050E0BC01CD010E9495
:100A2000F40EDC01CB01892B8A2B8B2B59F480919E
:100A30008D018F5F80938D0180918D01833011F442
:100A400010928D018091A1019091A201A091A3012A
:100A5000B091A40128EC30E040E050E0BC01CD01B1
:100A60000E94F40EDC01CB01892B8A2B8B2B19F40D
:100A700081E080938C0180919001813061F58091BB
:100A8000A5019091A601A091A701B091A80101969E
:100A9000A11DB11D8093A5019093A601A093A7016C
:100AA000B093A8018091A5019091A601A091A70102
:100AB000B091A801803D9740A105B10560F08BE29F
:100AC00090E02BE230E0F901308120E82327FC019F
:100AD00020831092900180911501882309F4F0C0C1
:100AE00080911501882F90E0092E000CAA0BBB0BFA
:100AF000BC01CD010E949E0DDC01CB0120E030E065
:100B000040E05EE3BC01CD010E94530EDC01CB014D
:100B100089839A83AB83BC8380911401882F90E0F2
:100B2000092E000CAA0BBB0BBC01CD010E949E0D2F
:100B3000DC01CB0129813A814B815C81BC01CD0173
:100B40000E94530EDC01CB01BC01CD010E94660D59
:100B5000DC01CB019E838D83E090A101F090A20186
:100B60000091A3011091A40186EA9EE02D813E81AF
:100B7000B9010E94E00ECB019C01990F440B550B6B
:100B8000C801B7010E94F40EDC01CB01892B8A2B2E
:100B90008B2B09F095C080911201882309F049C080
:100BA00088E890E028E830E0F90120813181265F73
:100BB0003E4FFC013183208380919D0190919E01E5
:100BC000A0919F01B091A0010196A11DB11D80933C
:100BD0009D0190939E01A0939F01B093A00188E88E
:100BE00090E0FC0180819181813A9F4050F081E04A
:100BF0008093120188E890E020EA3FE0FC01318315
:100C0000208380911501282F30E040E050E0809152
:100C10009D0190919E01A0919F01B091A00182172A
:100C20009307A407B50708F44BC081E08093120135
:100C300047C080911201813009F042C088E890E0FD
:100C400028E830E0F901208131812A503140FC014F
:100C50003183208310929D0110929E0110929F017A
:100C60001092A00188E890E0FC0180819181803D94
:100C7000974030F51092120188E890E020ED37E0BF
:100C8000FC013183208388E890E0FC018081918120
:100C9000803D9740A9F481E0809390018BE290E041
:100CA0002BE230E0F901308120E82327FC0120838A
:100CB0001092A5011092A6011092A7011092A8010E
:100CC000000026960FB6F894DEBF0FBECDBFDF91B1
:100CD000CF91FF91EF91BF91AF919F918F917F91B4
:100CE0006F915F914F913F912F911F910F91FF90C5
:100CF000EF900F9000925F000F901F901895CF9388
:100D0000DF931F92CDB7DEB78983000080EC90E0BF
:100D1000FC018081882F90E080729927892BB1F3A4
:100D200086EC90E02981FC01208300000F90DF9188
:100D3000CF910895CF93DF931F92CDB7DEB719827D
:100D40000BC08981882F90E080509F4F20E3FC01E9
:100D5000208389818F5F898389818A3090F30000A5
:100D60000F90DF91CF910895CF93DF93CDB7DEB78A
:100D7000EB970FB6F894DEBF0FBECDBF99AF88AF2B
:100D80007BAF6AAF8091990190919A01A0919B01EC
:100D9000B0919C01898388AD99ADFC018081882345
:100DA00009F4DAC180911401882F90E09E012E5F32
:100DB0003F4F4AE050E0B9010E94250F8091910118
:100DC000909192019E012B5F3F4F4AE050E0B901A4
:100DD0000E94250F80919301909194019E01235FC1
:100DE0003F4F4AE050E0B9010E94250F80919501E4
:100DF000909196019E01275F3F4F4AE050E0B90174
:100E00000E94250F8981882F90E09E01295E3F4F27
:100E10004AE050E0B9010E94250F80911501882F0A
:100E200090E09E01215D3F4F4AE050E0B9010E94F1
:100E3000250F80919701909198019E012C5C3F4F66
:100E40004AE050E0B9010E94250F0E94640B809196
:100E50008F01882309F066C00E94640B61E085E081
:100E60000E94BA0C61E086E191E00E94970C6AE072
:100E700085E00E94BA0CCE01059661E00E94970CB5
:100E80006AE083E20E94BA0C61E084E291E00E9491
:100E9000970C64E185E00E94BA0CCE01099661E0EE
:100EA0000E94970C64E183E20E94BA0C61E089E23F
:100EB00091E00E94970C6EE185E00E94BA0CCE0191
:100EC0000D9661E00E94970C6EE183E20E94BA0CDD
:100ED00061E081E391E00E94970C68E285E00E9466
:100EE000BA0C8AAD9BADFC018081882329F461E0B6
:100EF0008AE091E00E94970C8AAD9BADFC01808155
:100F0000813029F461E085E391E00E94970C68E26A
:100F100082E30E94BA0C61E08BE391E00E94970C9F
:100F20000E94CD0C80918F018230F9F40E94640BF5
:100F300061E085E00E94BA0C61E086E191E00E94E8
:100F4000970C6FE085E00E94BA0CCE01C49661E078
:100F50000E94970C6FE08FE10E94BA0C61E081E47F
:100F600091E00E94970C0E94CD0C80918F018430FB
:100F700009F04CC00E94640B61E085E00E94BA0C4D
:100F800061E08AE491E00E94970C6AE085E00E94AB
:100F9000BA0C61E085E591E00E94970C6FE085E076
:100FA0000E94BA0CCE01029661E00E94970C6FE09D
:100FB00086E10E94BA0C61E081E691E00E94970C04
:100FC00069E185E00E94BA0CCE01479661E00E947B
:100FD000970C69E189E10E94BA0C61E08CE691E02E
:100FE0000E94970C63E285E00E94BA0CCE018F96B6
:100FF00061E00E94970C63E289E10E94BA0C61E013
:1010000081E791E00E94970C0E94CD0C80918F01A6
:10101000863009F04CC00E94640B61E085E00E94BC
:10102000BA0C61E08AE491E00E94970C6AE085E0E6
:101030000E94BA0C61E085E591E00E94970C6FE098
:1010400085E00E94BA0CCE01029661E00E94970CE6
:101050006FE086E10E94BA0C61E086E791E00E94B1
:10106000970C69E185E00E94BA0CCE01479661E0D9
:101070000E94970C69E189E10E94BA0C61E080E866
:1010800091E00E94970C63E285E00E94BA0CCE01C9
:101090008F9661E00E94970C63E289E10E94BA0C8E
:1010A00061E081E791E00E94970C0E94CD0C809155
:1010B0008F01883009F04CC00E94640B61E085E02C
:1010C0000E94BA0C61E08AE491E00E94970C6AE009
:1010D00085E00E94BA0C61E085E591E00E94970CE2
:1010E0006FE085E00E94BA0CCE01029661E00E949A
:1010F000970C6FE086E10E94BA0C61E086E791E010
:101100000E94970C69E185E00E94BA0CCE014796D7
:1011100061E00E94970C69E189E10E94BA0C61E0EC
:101120008CE691E00E94970C63E285E00E94BA0C85
:10113000CE018F9661E00E94970C63E289E10E94E4
:10114000BA0C61E086E891E00E94970C0E94CD0CF9
:1011500088AD99ADFC0110820000EB960FB6F894B3
:10116000DEBF0FBECDBFDF91CF910895CF93DF9348
:10117000CDB7DEB78AE290E023EEFC01208387E260
:1011800090E02FE3FC01208384E290E026E8FC015C
:10119000208385E290E021E0FC0120838BE290E057
:1011A0002DE1FC01208389E690E02AE0FC01208308
:1011B0008DE390E023E0FC01208388E690E027E0C7
:1011C000FC0120838BE690E021E8FC0120838DE682
:1011D00090E022E1FC0120838CE790E020E4FC0118
:1011E00020838AE790E02FEEFC0120838BE790E0DC
:1011F000FC0110828EE790E028E3FC01208384E468
:1012000090E022E0FC01208385E490E023E0FC01F3
:10121000208387E490E029EFFC0120838EE690E0B4
:1012200022E1FC01208385EC90E0FC01108284EC3B
:1012300090E02FEFFC01208381EC90E028E9FC0195
:10124000208382EC90E026E0FC01208386E890E099
:101250002FE33CE9FC013183208380E890E022EA1F
:10126000FC01208381E890E02AE1FC01208388E8EA
:1012700090E020ED37E0FC01318320838AE890E0A4
:1012800020ED37E0FC013183208378940E94E4094B
:1012900063E171E08CE891E00E94B406F9CF1F93FE
:1012A000CF93DF9300D0CDB7DEB789836A8388E21E
:1012B00090E028E230E0F90120812F7BFC012083BF
:1012C0008A81882351F088E290E028E230E0F90139
:1012D00020812860FC01208309C088E290E028E298
:1012E00030E0F9012081277FFC01208310E03CC021
:1012F0008981882F90E0212F30E047E050E0BA014B
:10130000621B730B9B0102C0959587952A95E2F7A6
:1013100081709927892B51F088E290E028E230E033
:10132000F90120812061FC01208309C088E290E05E
:1013300028E230E0F90120812F7EFC01208388E241
:1013400090E028E230E0F90120812062FC01208356
:1013500088E290E028E230E0F90120812F7DFC0155
:101360002083812F11E0180F183010F288E290E0EE
:1013700028E230E0F90120812064FC012083000094
:101380000F900F90DF91CF911F910895CF93DF932E
:101390001F92CDB7DEB7898360E089810E944F0933
:1013A00000000F90DF91CF910895CF93DF931F92AC
:1013B000CDB7DEB7898361E089810E944F090000C3
:1013C0000F90DF91CF9108950F931F93CF93DF93E9
:1013D000CDB7DEB76C970FB6F894DEBF0FBECDBFAA
:1013E00087E290E027E230E0F90120812064FC01EF
:1013F000208387E290E027E230E0F901208121603C
:10140000FC01208387E290E027E230E0F9012081AF
:101410002860FC01208387E290E027E230E0F901B8
:1014200020812061FC01208387E290E027E230E008
:10143000F90120812062FC01208388E290E028E20B
:1014400030E0F90120812160FC01208388E290E0F6
:1014500028E230E0F90120812064FC01208380E053
:1014600090E0A0E2B1E489839A83AB83BC8320E05F
:1014700030E04AE753E469817A818B819C810E9444
:10148000530EDC01CB018B8B9C8BAD8BBE8B20E094
:1014900030E040E85FE36B897C898D899E890E94FA
:1014A000EF0C88232CF481E090E0988F8F8B3FC065
:1014B00020E03FEF4FE757E46B897C898D899E8957
:1014C0000E944E0E18164CF520E030E040E251E448
:1014D00069817A818B819C810E94530EDC01CB0152
:1014E000BC01CD010E946D0DDC01CB01988F8F8B6B
:1014F0000FC089E190E09A8F898F898D9A8D01972D
:10150000F1F79A8F898F8F89988D0197988F8F8B9C
:101510008F89988D892B69F714C06B897C898D8997
:101520009E890E946D0DDC01CB01988F8F8B8F8976
:10153000988D9C8F8B8F8B8D9C8D0197F1F79C8F55
:101540008B8F88E290E028E230E0F90120812E7F45
:10155000FC01208380E090E0ACE8B2E48D839E83C0
:10156000AF83B88720E030E04AE753E46D817E81A5
:101570008F8198850E94530EDC01CB0189879A8761
:10158000AB87BC8720E030E040E85FE369857A857F
:101590008B859C850E94EF0C88232CF481E090E0E1
:1015A0009E878D873FC020E03FEF4FE757E4698576
:1015B0007A858B859C850E944E0E18164CF520E08E
:1015C00030E040E251E46D817E818F8198850E94F8
:1015D000530EDC01CB01BC01CD010E946D0DDC017D
:1015E000CB019E878D870FC089E190E0988B8F8714
:1015F0008F8598890197F1F7988B8F878D859E85C8
:1016000001979E878D878D859E85892B69F714C0EC
:1016100069857A858B859C850E946D0DDC01CB01E7
:101620009E878D878D859E859A8B898B89899A89DE
:101630000197F1F79A8B898B88E290E028E230E0FD
:10164000F90120812160FC01208388E290E028E2FA
:1016500030E0F90120812F7BFC01208381E20E9490
:10166000C60983E10E94C60986E00E94C60982EC91
:101670000E94C60980E20E94C60989E00E94C6094C
:1016800080E80E94C60980E40E94C60900E010E0DC
:1016900005C080E00E94D5090F5F1F4F083FF1E0B1
:1016A0001F07B8F388E00E94C6098CE00E94C609B3
:1016B00000006C960FB6F894DEBF0FBECDBFDF9171
:1016C000CF911F910F9108950F931F93CF93DF93A5
:1016D000CDB7DEB780E80E94C60980E40E94C60943
:1016E0001092A9031092AA0300E010E007C0C801FD
:1016F0008F549E4FFC0110820F5F1F4F083FF1E097
:101700001F07A8F30000DF91CF911F910F9108955B
:10171000CF93DF9300D000D01F92CDB7DEB78B837D
:101720006C834D838C81869586958695882F90E075
:1017300044E5489F9001499F300D11248B81882FEB
:1017400090E0820F931F8F549E4F9A8389838D81DF
:101750008823C9F089819A81FC018081482F8C817E
:10176000882F90E09C012770332781E090E002C031
:10177000880F991F2A95E2F7842B282F89819A8157
:10178000FC01208319C089819A81FC018081482F46
:101790008C81882F90E09C012770332781E090E0B6
:1017A00002C0880F991F2A95E2F780958423282F7D
:1017B00089819A81FC01208300000F900F900F9087
:1017C0000F900F90DF91CF9108950F931F93CF93B8
:1017D000DF9300D000D01F92CDB7DEB78C836D832E
:1017E00010E065C000E04EC08C81882F90E09C0125
:1017F000205231099D81812F692F0E94C00E482FF0
:1018000050E0C901880F991F880F991F820F931FFD
:10181000840F951F88599F4F9A83898389819A8164
:10182000FC0184918B838B81282F30E09D81802F58
:10183000692F0E94C00E882F90E0A90102C0559523
:1018400047958A95E2F7CA0181709927892B61F043
:101850008091AA03982F900F8091A903810F41E0F6
:10186000692F0E94880B0BC08091AA03982F900FBC
:101870008091A903810F40E0692F0E94880B802F7F
:1018800001E0080F402F50E08D81282F30E0C90182
:10189000880F991F880F991F880F991F821B930B20
:1018A000481759070CF4A0CF812F11E0180F412FD2
:1018B00050E08D81282F30E0C901880F991F880FD3
:1018C000991F820F931F481759070CF48BCF209153
:1018D000A9039D81892F880F880F890F820F8F5F41
:1018E0008093A9038091A903843570F01092A90315
:1018F0002091AA039D81892F880F880F880F891B4B
:10190000820F8F5F8093AA038091AA03803320F017
:101910001092A9031092AA0300000F900F900F904D
:101920000F900F90DF91CF911F910F910895CF935A
:10193000DF9300D01F92CDB7DEB79A8389836B8384
:101940000CC089819A819C012F5F3F4F3A83298384
:10195000FC0180816B810E94E50B89819A81FC01E9
:101960008081882371F700000F900F900F90DF9116
:10197000CF910895CF93DF9300D0CDB7DEB78983A1
:101980006A8389818093A9038A818093AA030000D6
:101990000F900F90DF91CF9108950F931F93CF93E6
:1019A000DF93CDB7DEB780E80E94C60980E40E94CD
:1019B000C60900E010E009C0C8018F549E4FFC0129
:1019C00080810E94D5090F5F1F4F083FF1E01F077C
:1019D00098F30000DF91CF911F910F9108950E941D
:1019E000D90D08F481E008950E94080D0C94140E9E
:1019F0000E940D0E58F00E94060E40F029F45F3F41
:101A000029F00C94FD0D51110C94480E0C94030E0A
:101A10000E94250E68F39923B1F3552391F3951B8A
:101A2000550BBB27AA2762177307840738F09F5FFF
:101A30005F4F220F331F441FAA1FA9F335D00E2E6C
:101A40003AF0E0E832D091505040E695001CCAF7D9
:101A50002BD0FE2F29D0660F771F881FBB1F26179C
:101A600037074807AB07B0E809F0BB0B802DBF0173
:101A7000FF2793585F4F3AF09E3F510578F00C9442
:101A8000FD0D0C94480E5F3FE4F3983ED4F3869529
:101A900077956795B795F7959F5FC9F7880F911D63
:101AA0009695879597F90895E1E0660F771F881F4F
:101AB000BB1F621773078407BA0720F0621B730B02
:101AC000840BBA0BEE1F88F7E09508950E946D0D08
:101AD0006894B1110C94480E08950E942D0E88F060
:101AE0009F5798F0B92F9927B751B0F0E1F0660FE2
:101AF000771F881F991F1AF0BA95C9F714C0B13023
:101B000091F00E94470EB1E008950C94470E672FA4
:101B1000782F8827B85F39F0B93FCCF38695779551
:101B20006795B395D9F73EF490958095709561953A
:101B30007F4F8F4F9F4F0895E89409C097FB3EF465
:101B400090958095709561957F4F8F4F9F4F99230A
:101B5000A9F0F92F96E9BB279395F6958795779588
:101B60006795B795F111F8CFFAF4BB0F11F460FF48
:101B70001BC06F5F7F4F8F4F9F4F16C0882311F0A0
:101B800096E911C0772321F09EE8872F762F05C0B4
:101B9000662371F096E8862F70E060E02AF09A954F
:101BA000660F771F881FDAF7880F9695879597F944
:101BB0000895990F0008550FAA0BE0E8FEEF1616DE
:101BC0001706E807F907C0F012161306E407F50731
:101BD00098F0621B730B840B950B39F40A2661F0A5
:101BE000232B242B252B21F408950A2609F4A14048
:101BF000A6958FEF811D811D089597F99F6780E855
:101C000070E060E008959FEF80EC089500240A944E
:101C10001616170618060906089500240A941216C7
:101C20001306140605060895092E0394000C11F4FA
:101C3000882352F0BB0F40F4BF2B11F460FF04C0A7
:101C40006F5F7F4F8F4F9F4F089557FD9058440F00
:101C5000551F59F05F3F71F04795880F97FB991F0B
:101C600061F09F3F79F087950895121613061406C8
:101C7000551FF2CF4695F1DF08C016161706180655
:101C8000991FF1CF86957105610508940895E89430
:101C9000BB2766277727CB0197F908950E94D90DB6
:101CA00008F48FEF08950E94660E0C94140E0E94A3
:101CB000060E38F00E940D0E20F0952311F00C94C2
:101CC000FD0D0C94030E11240C94480E0E94250E59
:101CD00070F3959FC1F3950F50E0551F629FF0017F
:101CE000729FBB27F00DB11D639FAA27F00DB11D98
:101CF000AA1F649F6627B00DA11D661F829F222721
:101D0000B00DA11D621F739FB00DA11D621F839FA7
:101D1000A00D611D221F749F3327A00D611D231F7D
:101D2000849F600D211D822F762F6A2F11249F57CB
:101D300050409AF0F1F088234AF0EE0FFF1FBB1FCE
:101D4000661F771F881F91505040A9F79E3F51058D
:101D500080F00C94FD0D0C94480E5F3FE4F3983E28
:101D6000D4F3869577956795B795F795E7959F5F37
:101D7000C1F7FE2B880F911D9695879597F90895C9
:101D8000991B79E004C0991F961708F0961B881FCD
:101D90007A95C9F780950895AA1BBB1B51E107C02E
:101DA000AA1FBB1FA617B70710F0A61BB70B881FEB
:101DB000991F5A95A9F780959095BC01CD0108957A
:101DC00097FB072E16F4009407D077FD09D00E94E8
:101DD000CC0E07FC05D03EF4909581959F4F089559
:101DE000709561957F4F0895A1E21A2EAA1BBB1B27
:101DF000FD010DC0AA1FBB1FEE1FFF1FA217B307D7
:101E0000E407F50720F0A21BB30BE40BF50B661FEC
:101E1000771F881F991F1A9469F7609570958095B0
:101E200090959B01AC01BD01CF010895A29FB00127
:101E3000B39FC001A39F700D811D1124911DB29FFE
:101E4000700D811D1124911D08954532510520F416
:101E5000423010F00C94300FFB011082CB0108953A
:101E6000BB274A3031F4992322F4BDE29095819545
:101E70009F4F0C943C0FBB27FB015527AA27880FC7
:101E8000991FAA1FA41710F0A41B83955051B9F7EE
:101E9000A05DAA3308F0A95DA193009779F7B1116D
:101EA000B1931192CB010C94550FDC01FC01672F0B
:101EB00071917723E1F7329704C07C916D93708321
:0E1EC0006291AE17BF07C8F30895F894FFCFE4
:101ECE00202020202020202020303030307830304C
:101EDE0030000101050853696E61697320566974FB
:101EEE00616973002062706D0020252053704F329F
:101EFE0000206F43004572726F7200206D6D48674F
:101F0E0000207048202A31303000506172616D65BA
:101F1E0074726F73002D2D2D2D2D2D2D2D2D2D2DFC
:101F2E00002A20726573702F6D696E0020254F3266
:101F3E000020766F6C0020726573702F6D696E00D5
:0C1F4E002A20254F32002A20766F6C00FC
:00000001FF
